:020000040800F2
:10000000000005205D1A000875190008771900081E
:10001000791900087B1900087D190008000000000C
:10002000000000000000000000000000919A00089D
:100030007F19000800000000319B0008959B000814
:10004000AD1A0008AD1A0008AD1A0008AD1A000874
:10005000AD1A0008AD1A0008AD1A0008AD1A000864
:10006000AD1A0008AD1A0008AD1A0008AD1A000854
:10007000AD1A0008AD1A0008AD1A0008AD1A000844
:10008000AD1A0008AD1A0008AD1A0008AD1A000834
:10009000AD1A0008AD1A0008AD1A0008AD1A000824
:1000A000AD1A0008AD1A0008AD1A0008AD1A000814
:1000B000AD1A0008AD1A0008AD1A0008AD1A000804
:1000C000AD1A0008AD1A0008AD1A0008AD1A0008F4
:1000D000AD1A0008AD1A0008AD1A0008AD1A0008E4
:1000E000AD1A0008AD1A0008AD1A0008AD1A0008D4
:1000F000AD1A0008AD1A0008AD1A0008AD1A0008C4
:10010000AD1A0008AD1A0008AD1A0008AD1A0008B3
:10011000AD1A0008AD1A000881190008AD1A0008D0
:10012000AD1A0008AD1A0008AD1A0008AD1A000893
:10013000AD1A0008AD1A0008AD1A0008AD1A000883
:10014000AD1A0008AD1A0008AD1A0008AD1A000873
:10015000AD1A0008AD1A0008AD1A00088D19000884
:10016000AD1A0008AD1A0008AD1A0008AD1A000853
:10017000AD1A0008AD1A0008AD1A00080000000012
:10018000AD1A0008AD1A0008AD1A0008AD1A000833
:10019000AD1A0008AD1A0008AD1A0008AD1A000823
:1001A00099190008AD1A0008A5190008AD1A000831
:1001B000AD1A0008AD1A0008AD1A0008AD1A000803
:0801C000AD1A0008AD1A000899
:1001D00010B5054C237833B9044B13B10448AFF381
:1001E00000800123237010BD3C01002000000000AE
:1001F00008FF010808B5034B1BB103490348AFF3DF
:10020000008008BD000000004001002008FF010838
:1002100001F0FF01102A2BDB10F0070F08D010F8B7
:10022000013B013A8B422DD010F0070F42B3F6D1BB
:10023000F0B441EA012141EA014122F007047FF0D4
:1002400000070023F0E80256083C85EA010586EA2B
:10025000010685FA47F5A3FA87F586FA47F6A5FA67
:1002600087F68EB9EED1F0BC01F0FF0102F0070273
:1002700032B110F8013B013A83EA010313B1F8D11E
:100280000020704701387047002D06BF35460338FF
:10029000073815F0010F07D1013015F4807F02BF38
:1002A000013015F4C03F0130F0BC0138704700BF89
:1002B00081F0004102E000BF83F0004330B54FEA17
:1002C00041044FEA430594EA050F08BF90EA020F84
:1002D0001FBF54EA000C55EA020C7FEA645C7FEA17
:1002E000655C00F0E2804FEA5454D4EB5555B8BF3A
:1002F0006D420CDD2C4480EA020281EA030382EAAB
:10030000000083EA010180EA020281EA0303362D3C
:1003100088BF30BD11F0004F4FEA01314FF4801C0F
:100320004CEA113102D0404261EB410113F0004F21
:100330004FEA03334CEA133302D0524263EB4303D8
:1003400094EA050F00F0A780A4F10104D5F1200E76
:100350000DDB02FA0EFC22FA05F2801841F10001D1
:1003600003FA0EF2801843FA05F359410EE0A5F1A5
:1003700020050EF1200E012A03FA0EFC28BF4CF0D6
:10038000020C43FA05F3C01851EBE37101F000458C
:1003900007D54FF0000EDCF1000C7EEB00006EEB99
:1003A0000101B1F5801F1BD3B1F5001F0CD3490823
:1003B0005FEA30004FEA3C0C04F101044FEA44527A
:1003C00012F5800F80F09A80BCF1004F08BF5FEA01
:1003D000500C50F1000041EB045141EA050130BDE1
:1003E0005FEA4C0C404141EB0101013C28BFB1F5F3
:1003F000801FE9D291F0000F04BF01460020B1FA3E
:1004000081F308BF2033A3F10B03B3F120020CDA10
:100410000C3208DD02F1140CC2F10C0201FA0CF0EE
:1004200021FA02F10CE002F11402D8BFC2F1200C53
:1004300001FA02F120FA0CFCDCBF41EA0C01904009
:10044000E41AA2BF01EB0451294330BD6FEA040452
:100450001F3C1CDA0C340EDC04F11404C4F120023D
:1004600020FA04F001FA02F340EA030021FA04F34F
:1004700045EA030130BDC4F10C04C4F1200220FAA6
:1004800002F001FA04F340EA0300294630BD21FAE4
:1004900004F0294630BD94F0000F83F4801306BFAA
:1004A00081F480110134013D4EE77FEA645C18BF9E
:1004B0007FEA655C29D094EA050F08BF90EA020F35
:1004C00005D054EA000C04BF1946104630BD91EA2D
:1004D000030F1EBF0021002030BD5FEA545C05D130
:1004E0004000494128BF41F0004130BD14F580046F
:1004F0003CBF01F5801130BD01F0004545F0FE41E3
:1005000041F470014FF0000030BD7FEA645C1ABF17
:10051000194610467FEA655C1CBF0B46024650EA4E
:10052000013406BF52EA033591EA030F41F400217A
:1005300030BD00BF90F0000F04BF0021704730B500
:100540004FF4806404F132044FF000054FF00001D5
:1005500050E700BF90F0000F04BF0021704730B596
:100560004FF4806404F1320410F0004548BF40426B
:100570004FF000013EE700BF42004FEAE2014FEAC0
:1005800031014FEA02701FBF12F07F4393F07F4F9B
:1005900081F06051704732F07F4208BF704793F09E
:1005A0007F4F04BF41F40021704730B54FF46074B1
:1005B00001F0004521F000411CE700BF50EA0102B4
:1005C00008BF704730B54FF000050AE050EA01025D
:1005D00008BF704730B511F0004502D5404261EBCD
:1005E00041014FF4806404F132045FEA915C3FF40E
:1005F000D8AE4FF003025FEADC0C18BF03325FEAAB
:10060000DC0C18BF033202EBDC02C2F1200300FA5B
:1006100003FC20FA02F001FA03FE40EA0E0021FA80
:1006200002F11444BDE600BF70B54FF0FF0C4CF46E
:10063000E06C1CEA11541DBF1CEA135594EA0C0F20
:1006400095EA0C0F00F0DEF82C4481EA030621EA5B
:100650004C5123EA4C5350EA013518BF52EA033596
:1006600041F4801143F4801338D0A0FB02CE4FF048
:100670000005E1FB02E506F00042E0FB03E54FF078
:100680000006E1FB03569CF0000F18BF4EF0010E70
:10069000A4F1FF04B6F5007F64F5407404D25FEA6C
:1006A0004E0E6D4146EB060642EAC62141EA55511F
:1006B0004FEAC52040EA5E504FEACE2EB4F1FD0C61
:1006C00088BFBCF5E06F1ED8BEF1004F08BF5FEADF
:1006D000500E50F1000041EB045170BD06F0004691
:1006E00046EA010140EA020081EA0301B4EB5C043E
:1006F000C2BFD4EB0C0541EA045170BD41F4801136
:100700004FF0000E013C00F3AB8014F1360FDEBF5A
:10071000002001F0004170BDC4F10004203C35DA36
:100720000C341BDC04F11404C4F1200500FA05F3B9
:1007300020FA04F001FA05F240EA020001F000425A
:1007400021F0004110EBD37021FA04F642EB0601D0
:100750005EEA430E08BF20EAD37070BDC4F10C04FA
:10076000C4F1200500FA04F320FA05F001FA04F2BE
:1007700040EA020001F0004110EBD37041F10001AA
:100780005EEA430E08BF20EAD37070BDC4F12005B5
:1007900000FA05F24EEA020E20FA04F301FA05F21D
:1007A00043EA020321FA04F001F0004121FA04F2C5
:1007B00020EA020000EBD3705EEA430E08BF20EA95
:1007C000D37070BD94F0000F0FD101F000464000CF
:1007D00041EB010111F4801F08BF013CF7D041EA51
:1007E000060195F0000F18BF704703F00046520055
:1007F00043EB030313F4801F08BF013DF7D043EA26
:100800000603704794EA0C0F0CEA135518BF95EADB
:100810000C0F0CD050EA410618BF52EA4306D1D162
:1008200081EA030101F000414FF0000070BD50EA81
:10083000410606BF1046194652EA430619D094EA0B
:100840000C0F02D150EA013613D195EA0C0F05D1F5
:1008500052EA03361CBF104619460AD181EA030149
:1008600001F0004141F0FE4141F470014FF0000001
:1008700070BD41F0FE4141F4780170BD70B54FF09C
:10088000FF0C4CF4E06C1CEA11541DBF1CEA13551C
:1008900094EA0C0F95EA0C0F00F0A7F8A4EB0504FE
:1008A00081EA030E52EA03354FEA013100F08880F5
:1008B0004FEA03334FF0805545EA131343EA1263BE
:1008C0004FEA022245EA111545EA10654FEA002673
:1008D0000EF000419D4208BF964244F1FD0404F52C
:1008E000407402D25B084FEA3202B61A65EB030588
:1008F0005B084FEA32024FF480104FF4002CB6EB45
:10090000020E75EB030E22BFB61A754640EA0C00C4
:100910005B084FEA3202B6EB020E75EB030E22BF04
:10092000B61A754640EA5C005B084FEA3202B6EB45
:10093000020E75EB030E22BFB61A754640EA9C0004
:100940005B084FEA3202B6EB020E75EB030E22BFD4
:10095000B61A754640EADC0055EA060E18D04FEA92
:10096000051545EA16754FEA06164FEAC30343EA32
:1009700052734FEAC2025FEA1C1CC0D111F4801FFF
:100980000BD141EA00014FF000004FF0004CB6E7F8
:1009900011F4801F04BF01430020B4F1FD0C88BF97
:1009A000BCF5E06F3FF6AFAEB5EB030C04BFB6EBA2
:1009B000020C5FEA500C50F1000041EB045170BD95
:1009C0000EF0004E4EEA113114EB5C04C2BFD4EBC2
:1009D0000C0541EA045170BD41F480114FF0000E46
:1009E000013C90E645EA060E8DE60CEA135594EAC2
:1009F0000C0F08BF95EA0C0F3FF43BAF94EA0C0FC5
:100A00000AD150EA01347FF434AF95EA0C0F7FF439
:100A100025AF104619462CE795EA0C0F06D152EA8D
:100A200003353FF4FDAE1046194622E750EA410671
:100A300018BF52EA43067FF4C5AE50EA41047FF482
:100A40000DAF52EA43057FF4EBAE12E74FF0FF3CE7
:100A500006E000BF4FF0010C02E000BF4FF0010CB8
:100A60004DF804CD4FEA410C7FEA6C5C4FEA430C31
:100A700018BF7FEA6C5C1BD001B050EA410C0CBF80
:100A800052EA430C91EA030F02BF90EA020F0020E2
:100A9000704710F1000F91EA030F58BF994208BF49
:100AA00090422CBFD8176FEAE37040F00100704706
:100AB0004FEA410C7FEA6C5C02D150EA013C07D15D
:100AC0004FEA430C7FEA6C5CD6D152EA033CD3D0A8
:100AD0005DF8040B704700BF8446104662468C46A2
:100AE0001946634600E000BF01B5FFF7B7FF0028D5
:100AF00048BF10F1000F01BD4DF808EDFFF7F4FFFE
:100B00000CBF012000205DF808FB00BF4DF808ED88
:100B1000FFF7EAFF34BF012000205DF808FB00BFAB
:100B20004DF808EDFFF7E0FF94BF012000205DF8CD
:100B300008FB00BF4DF808EDFFF7CEFF94BF012082
:100B400000205DF808FB00BF4DF808EDFFF7C4FF7B
:100B500034BF012000205DF808FB00BF4FEA4102CE
:100B600012F5001215D211D56FF47873B3EB6252FF
:100B700012D94FEAC12343F0004343EA505311F026
:100B8000004F23FA02F018BF404270474FF00000B8
:100B9000704750EA013005D111F0004008BF6FF0F6
:100BA000004070474FF00000704700BF53B94AB98A
:100BB000002908BF00281CBF4FF0FF314FF0FF3065
:100BC00000F06EB9ADF1080C6DE904CE00F006F846
:100BD000DDF804E0DDE9022304B070472DE9F047B9
:100BE000089D04468C46002B40F083808A421746BD
:100BF00047D9B2FA82F242B1C2F1200024FA00F0E1
:100C00009140974040EA010C94404FEA1748230C6A
:100C1000BCFBF8F61FFA87FE08FB16C143EA014346
:100C200006FB0EF1994209D9FB1806F1FF3080F05E
:100C30001981994240F21681023E3B445B1AA4B2EC
:100C4000B3FBF8F008FB103344EA034400FB0EFE4C
:100C5000A64509D93C1900F1FF3380F00581A6456E
:100C600040F2028102383C4440EA0640A4EB0E0404
:100C700000261DB1D4400023C5E900433146BDE83C
:100C8000F08702B9FFDEB2FA82F2002A50D1CB1B04
:100C90004FEA174E1FFA87F80126B3FBFEFC210C22
:100CA0000EFB1C3341EA034108FB0CF38B4207D9CE
:100CB00079180CF1FF3002D28B4200F2E9808446B1
:100CC000C91AA3B2B1FBFEF00EFB101143EA0144B6
:100CD00008FB00F8A04507D93C1900F1FF3302D208
:100CE000A04500F2D9801846A4EB080440EA0C4065
:100CF000BFE78B4209D9002D00F0B1800026C5E97D
:100D0000000130463146BDE8F087B3FA83F6002E85
:100D10004AD18B4202D3824200F2B880841A61EB3E
:100D2000030101208C46002DA8D0C5E9004CA5E7A1
:100D3000C2F1200320FA03F6974001FA02F04FEACD
:100D4000174ED9403043030CB1FBFEF61FFA87F86B
:100D50000EFB161143EA014306FB08F1994204FA1F
:100D600002F409D9FB1806F1FF3C80F08D8099420E
:100D700040F28A80023E3B445B1A81B2B3FBFEF034
:100D80000EFB103341EA034100FB08F38B4207D905
:100D9000791800F1FF3C73D28B4271D90238394483
:100DA000CB1A40EA064678E7C6F1200C03FA06F4AF
:100DB00022FA0CF31C4320FA0CF701FA06F34FEA6F
:100DC000144E21FA0CF11F433B0CB1FBFEF91FFA44
:100DD00084F80EFB191143EA014109FB08FA8A4520
:100DE00002FA06F200FA06F308D9611809F1FF3099
:100DF00048D28A4546D9A9F102092144A1EB0A014A
:100E0000BFB2B1FBFEF00EFB101147EA014700FB39
:100E100008F8B84507D9E71900F1FF312ED2B845D7
:100E20002CD90238274440EA0940A7EB0807A0FB69
:100E300002894F45C64649461AD317D05DB1B3EB78
:100E40000E0267EB010707FA0CFCF2404CEA0202C3
:100E5000F740C5E9002700263146BDE8F0872E4659
:100E600028460BE70646E9E61846FDE64345E5D287
:100E7000B8EB020E69EB04010138DFE70846D2E760
:100E800060468DE78146B9E7664675E730464AE732
:100E9000ACF1020C394413E702383C4424E700BFAC
:100EA000704700BF0149002009F09CBFB51D000834
:100EB00008B5642008F0A4FAFBE7000070B5B4B0F0
:100EC00010220021012609A802241EF02FF8142266
:100ED000002102A81EF02AF80021842213A81EF087
:100EE00025F8254B07A800251A6C42F080521A6499
:100EF0001B6C03F080530093009B204B1A6842F454
:100F000040421A6019221B6803F440430193019B7D
:100F10004FF48033CDE907634FF48003CDE90D43EF
:100F20004FF4C873CDE91144CDE90F2306F000FD5D
:100F300006F0A6F90F23062102A8CDE902344FF4EA
:100F4000A053CDE904534FF48053069306F0DCFE22
:100F50000B4B13A81B9513934FF4C0731D96189356
:100F6000052329952E95CDE919434FF400331E939F
:100F700006F0A8FF34B070BD003802400070004099
:100F8000080801002DE980489BB0102200210125AE
:100F90000DA800241DF0CAFF05F0E2F84FF0104143
:100FA000CA4B0DA8ADF834501094CDE90E1305F0DE
:100FB000F9F817230DA88DF835508DF83C308DF8D1
:100FC000425005F0EFF8042005F0DAF8BFF34F8F38
:100FD000BFF36F8FBE4BC3F85042BFF34F8FBFF3C9
:100FE0006F8F5A6942F400325A61BFF34F8FBFF3DB
:100FF0006F8FC3F88440BFF34F8FD3F8802043F640
:10100000E074C2F3C900C2F34E32520102EA040690
:10101000014646EA81750139C3F86052F9D2203A97
:1010200012F1200FF2D1BFF34F8F5A6942F4803290
:101030005A61BFF34F8FBFF36F8F04F0F1FF0024AD
:10104000FFF73CFF142200210DA81DF06FFFA14BFC
:101050000821A1481A6B01274FF0080B4FF4805A62
:1010600042F010029D4D9E4E4FF004091A634FF05E
:1010700010081A6B02F010020292029A1A6B42F0E8
:1010800001021A631A6B02F001020392039A1A6BAF
:1010900042F002021A631A6B02F002020492049AEE
:1010A0001A6B42F040021A631A6B02F0400205927A
:1010B000059A1A6B42F400721A631A6B02F40072FA
:1010C0000692069A1A6B42F008021A631A6B02F033
:1010D00008020792079A1A6B42F480621A631A6B2D
:1010E00002F480620892089A1A6B42F020021A6396
:1010F0001A6B02F020020992099A1A6B42F480726C
:101100001A631A6B02F480720A920A9A1A6B42F0FE
:1011100080021A631A6B02F080020B920B9A1A6B10
:1011200042F004021A6301221B6B03F004030C93C8
:101130000C9B05F099FB01224FF48051694805F0A2
:1011400093FB0DA96448CDE90DB7CDE90F4405F037
:1011500003FA0DA96348CDE90DA7CDE90F4405F0C9
:10116000FBF96148614B848003600762C0E9054474
:1011700005F040F85E4B2846C5E90A44C5E90C4431
:10118000C5E90034C5E9024405F0E5F839462846CA
:10119000584D05F099F9584B40220DA93046B460DE
:1011A000F461B462C6E900344FF4C073C6E90523A4
:1011B0004FF40063C6E9083A4FF0020A0723CDE96D
:1011C0000DA3CDE90F930323CDF84CA0CDE9113A3F
:1011D000C6E9039807F0FEF829464FF6FF7230463D
:1011E0000194C5E90078C5E9027407F013F938469F
:1011F00004F03EFF29464FF6FF723046C5E900A8CD
:10120000C5E9027407F006F9032329464FF6FF7279
:101210003046C5E90038C5E902B407F0FBF84FF4E1
:101220000C734FF6FF72294601933046019B4FF035
:10123000180BAF60EB60C5E9009807F0EBF840F2DF
:101240002B7130462D4D07F0FCF843F2D2024FF0DF
:1012500020434FF47A7035261A6004F009FF284BBA
:10126000284928462C62C5E90013C5E90247C5E9AB
:101270000444C5E9064405F03FFC2146284605F034
:1012800017FE21462846204D05F038FE342221461F
:101290000DEB02001DF04AFE1C4B282040F2152CDD
:1012A00040F2352EAC862C6185F83640C5E9003415
:1012B0000923C5E905030B232846C5E9076340F266
:1012C0001B13C5E909C340F21D1321E01B000003F5
:1012D00000ED00E00038024000280240FCAC002095
:1012E0003CAD002000200240A8AB002000300240AE
:1012F00000B0024058010020400100A05CAB00207B
:10130000FFEAC000005C0040CCAB00200068014058
:10131000C5E90244C5E90BE305F09CFE4FF4887370
:10132000FF214FF4F072284618930D94ADF86440F5
:101330008DF866402A4DCDE9103ACDE912144FF4EC
:10134000806A0521CDE914A14FF04041CDE90E247A
:10135000CDE916120DA9224605F047FF2148224B80
:101360000462C0E900374FF4A063C0E90298C0E905
:1013700004B3C0E9064406F09FF804F0CFFC04F083
:1013800013FC5C2004F0D8FE184A4FF46143284651
:101390002C616C62C5E900230C23C5E90244C5E950
:1013A0000534C5E9074407F054FE00F080FB2A68C5
:1013B000136843F02003136007F074FF0C4A2146C2
:1013C0000C4807F0A9FF0C4B0C4A214618600C484A
:1013D00007F0A2FF0B4B186007F07EFFFEE700BF8F
:1013E00078AC002070AD0020001000A00014014077
:1013F000A8FF0108B10E000858AB002084FF0108C7
:10140000B31A000874AC00200268034B9A4201D161
:1014100004F01CBE704700BF001000400D4B82B0AE
:101420000F216FF001001A6C42F080521A641A6C9E
:1014300002F080520092009A5A6C42F480425A6440
:1014400000225B6C03F480430193019B02B004F023
:1014500033BE00BF00380240026882B0084B9A4297
:101460000BD1D3F8302803F5006342F480521A639D
:101470001B6B03F480530193019B02B0704700BFC4
:10148000003002400E4B07B502689A4215D1A3F511
:10149000F04305215A201A6B42F400021A6300221D
:1014A0001B6B03F400030193019B04F005FE5A201B
:1014B00003B05DF804EB04F031BE03B05DF804FB4B
:1014C00000B0024010B588B004461422002103A8E1
:1014D0001DF02CFD2268134B9A4221D1124C4FF47F
:1014E000C07201211148236B43F080032363236BF7
:1014F00003F080030193019B1223CDE9032303230F
:10150000CDE90513042303A9079305F025F8236CFF
:1015100043F400032364236C03F400030293029B4F
:1015200008B010BD005C004000380240001C0240C2
:10153000026808B5094B9A420FD1094A802109482F
:10154000136C23F40003136405F0ECF84FF480717E
:101550000448BDE8084005F0E5B808BD005C00405F
:1015600000380240001C024070B58CB004461422C2
:10157000002107A81DF0DAFC22683F4B9A4278D17F
:1015800003F55043002402250E265A6C07A93B4858
:1015900042F080625A645A6C02F080620192019AB1
:1015A0001A6B42F010021A631A6B02F010020292D8
:1015B000029A1A6B42F400721A631A6B02F40072F8
:1015C0000392039A1A6B42F480621A631A6B02F454
:1015D00080620492049A1A6B42F040021A631A6BFA
:1015E00002F040020592059A1A6B42F480721A6367
:1015F0001B6B03F480730693069B1023CDE907351C
:10160000CDE909440B9604F0A7FF4EF6FF7307A936
:101610001B480B96CDE90735CDE9094404F09CFF42
:10162000F72307A917480B96CDE90735CDE90944FB
:1016300004F092FF4FF4805307A91348CDE9073512
:101640000923CDE909440B9304F086FF4FF4464388
:1016500007A90E480B96CDE90735CDE9094404F0FA
:101660007BFF58202246052104F026FD582004F077
:1016700055FD0CB070BD00BF006801400010024075
:1016800000240240002802400018024000200240CE
:10169000142200212DE9F0418AB004460DEB02002E
:1016A0001DF044FC22682C4B9A4252D12B4B02264F
:1016B000002503249A6B09274FF0040805A942F07E
:1016C000020227489A639A6B02F002020192019A81
:1016D0001A6B42F010021A631A6B02F010020292A7
:1016E000029A1A6B42F002021A631A6B02F00202AB
:1016F0000392039A1A6B42F008021A631B6B099754
:1017000003F008030493049BCDE90586CDE9075453
:1017100004F022FF402305A91248CDE905360A232B
:10172000CDE90754099304F017FF05A90D4809975F
:10173000CDE90586CDE9075404F00EFF4FF4605360
:1017400005A909480997CDE90536CDE9075404F004
:1017500003FF0AB0BDE8F081001000A0003802408D
:101760000010024000040240000C0240026808B56C
:101770000B4B9A4213D10B4A04210B48936B23F075
:101780000203936304F0CEFF4421084804F0CAFF2B
:101790004FF460510648BDE8084004F0C3BF08BDDF
:1017A000001000A000380240001002400004024077
:1017B000000C024010B588B004461422002103A892
:1017C0001DF0B4FB2268174B9A4229D103F59233DE
:1017D000002403A914485A6C42F020025A645A6C3F
:1017E00002F020020192019A1A6B42F004021A637D
:1017F000C0221B6B03F004030293029B0223CDE97A
:1018000003230323CDE905430823079304F0A4FE33
:1018100047202246052104F04FFC472004F07EFCBF
:1018200008B010BD00140140000802402B4BF0B579
:101830001C6887B0002C4ED10122022703260C25FC
:101840001A6001A9264B27489A6B42F001029A635D
:101850009B6B039403F001030093009B4FF683738B
:10186000CDE90465CDE9013704F076FE48F2331383
:1018700001A91D480595CDE90137CDE9034604F0DE
:101880006BFE4CF2037301A918480595CDE90137A9
:10189000CDE9034604F060FE4FF63F0301A914486A
:1018A0000595CDE90137CDE9034604F055FE28231F
:1018B00001A910480595CDE90137CDE9034604F0AB
:1018C0004BFE082301A90C480595CDE90137CDE968
:1018D000034604F041FE07B0F0BD00BF68010020E0
:1018E000003802400010024000180240000C024084
:1018F00000140240001C02400008024010B50146DE
:1019000088B00022362004F0D7FB362004F006FC15
:10191000144B01A903A81A6C134C42F010021A646C
:101920001B6C03F010030293029B06F0ADFA06F065
:101930008BFA0E4B4000236040F2E733E3600C4B20
:10194000B0FBF3F001380023606020462361A36000
:1019500006F0E2FE20B9204606F086FD08B010BD74
:101960000120FBE700380240BCAD00200010004021
:1019700040420F007047FEE7FEE7FEE7FEE77047D4
:10198000014806F0B3BD00BFBCAD0020014806F021
:1019900089BF00BF78AC0020014805F0C9BB00BF7B
:1019A000CCAB0020014804F004BD00BFFCAC00201B
:1019B0000120704708B51DF05FFA162303604FF051
:1019C000FF3008BD08B51DF057FA16230360FEE787
:1019D00070B50E4614460025A54201DB204670BDB9
:1019E000AFF3008070550135F6E770B50E4614462A
:1019F0000025A54201DB204670BD705D0135AFF3C7
:101A00000080F6E74FF0FF3070474FF4005300209E
:101A10004B60704701207047002070470B4B024617
:101A2000196810B509B90A491960186809490A4CBA
:101A30000244091B8A4206D91DF01EFA0C230360DA
:101A40004FF0FF3010BD1A60FCE700BF6C010020B2
:101A5000A8AE002000000520000A0000DFF834D006
:101A6000002103E00C4B5B58435004310B480C4BF6
:101A700042189A42F6D30B4A02E0002342F8043B94
:101A8000094B9A42F9D304F0E1F91DF00DFAFFF782
:101A900079FA704700000520144C0208000000206D
:101AA0003C0100203C010020A8AE0020FEE700F031
:101AB0004FBC00F0BDBC40687047416070470000FB
:101AC000094A136843F080731360A2F54E42074B36
:101AD00052F84C1C4C3A0B431360A2F57B6213681E
:101AE00043F0010313607047FCED00E055CEACC538
:101AF000511A01EB5301B1FBF3F07047014B186829
:101B0000704700BF041000E0704710B504460C2178
:101B10001CF0E6FB204610BD036810B51B690446A7
:101B200031B19847A26863689B1A1844606010BD81
:101B30009847A060FBE70000024B7020024A136048
:101B4000DB6818472800002070010020704710B59E
:101B5000044604211CF0C4FB204610BD37B50A4DD5
:101B60000C462B6813B9002003B030BD1B697020F0
:101B70000192984701990028F5D02B6870202246E1
:101B80005B6998470120EFE7700100207FB50123D2
:101B90008DF817204FF47A72CDE901320DF117025A
:101BA00000920A460146054805F010F810B10348B6
:101BB00004F0F3FF07B05DF804FB00BF5CAB00204E
:101BC0007FB500230A464FF47A718DF81730012350
:101BD000CDE901310DF1170100910146054805F0ED
:101BE000ABF810B1034804F0D8FF9DF8170007B018
:101BF0005DF804FB5CAB0020704770477047012321
:101C000080F8741080F8753070470020704700200D
:101C10007047836B0BB10846184770474FF6FF704B
:101C20007047406803689B691847704738B5044699
:101C300000F0CEFC0A4A4FF0404123682046D3F81A
:101C40008050084BA8470023074D84F84A302846A7
:101C5000FFF736FF0123256184F86C3038BD00BFE3
:101C600000FC03C000F807C07401002008B531B9BA
:101C70000A4B4FF425710A4A0A481DF0CBF8C0E917
:101C80000F12003A0849436418BF0122003B0A7052
:101C900018BF0123054A137008BD00BF0C000208DD
:101CA0004400020892000208BAA80020BBA8002045
:101CB00000F076BC00F07ABC70B500F0A7FC104ACA
:101CC0000023C2F88430BFF34F8FD2F8803043F640
:101CD000E074C3F3C900C3F34E335B0103EA0406A7
:101CE000014646EA81750139C2F87452F9D2203BA7
:101CF00013F1200FF2D1BFF34F8FBFF36F8F70BD81
:101D000000ED00E000F090BC00F026BC00F08EBCBE
:101D100000F096BC00F02ABC10B504460AF082FD23
:101D200023682046D3F8A030BDE81040184709F0DA
:101D30003DBF10B504467C211CF0D2FA204610BDF0
:101D400090F877301BB1406803681B681847184645
:101D50007047000090F83410114B30B590F8744083
:101D60001A788C420DD05AB90E4A0F4914880F4880
:101D70000C8001880E4D11800122298004801A7088
:101D800030BD002AFCD00948074A0188084D11805F
:101D9000044A1488118000222C800480EFE700BFE1
:101DA000B4A80020B0A80020B6A80020B2A8002047
:101DB000B8A80020014608B5034B186801B10121FD
:101DC0000AF04AFD012008BDBCA80020034B0022F8
:101DD0005A609A60024A1A60704700BF740100207E
:101DE000D4FF01080121002208B5084607F022FBB4
:101DF0000A4B186028B90A4B27210A4A0A481DF0E5
:101E000009F800220421012007F0DAFB074B1860D3
:101E100018B9074B2B21034AF0E708BD84010020C5
:101E2000A4010208ED0102081C0202088001002042
:101E300094020208024B4FF0FF31186807F050BBC4
:101E400084010020014B186807F084BB8401002046
:101E5000024B0021186807F043BB00BF840100203B
:101E6000FFF7F0BF0023034803491A46006807F054
:101E7000EDBB00BF800100200400002013B500234B
:101E8000074C01A91A46206807F022FC4FF0FF33E7
:101E9000002201A9206807F01BFC02B010BD00BFA2
:101EA0008001002007F08EBA03685B6C18470120A0
:101EB000704703689B6A18470D4B82B01A6B42F457
:101EC00000021A631A6B02F400020192019A1A6965
:101ED00042F400021A611A6922F400021A61054BE9
:101EE000054A1A614FF08062044B9A6002B0704755
:101EF00000380240FCAC0020091F000800E100E0AF
:101F000040F2EF3070470000024B1B6858680368CE
:101F10005B691847BCA8002008B50B280BD8DFE880
:101F200000F01206100A0A0A0A0808080808012028
:101F300008BD0520FCE7054B6521054A05481CF056
:101F400069FF0020F4E70220F2E700BFD602020892
:101F5000F10202083D03020808B50A2809D8DFE8A3
:101F600000F010060E080808080606060600012004
:101F700008BD054B8621054A05481CF04BFF002093
:101F8000F6E70220F4E700BFD6020208B303020816
:101F90003D0302082DE9F84391F81D800C464046A8
:101FA000FFF7BAFFA77F05463846FFF7B5FF06469D
:101FB0003846FFF7D1FFA18A628B534B521A9E46D7
:101FC0001A649A61228B521A1A61E28A586342EAB1
:101FD000014221695A646268D963DA60D4F800C0AA
:101FE00094F81C90BCF1800F4FEA09623BD015D8E1
:101FF000BCF1200F45EA02007AD0BCF1400F77D047
:10200000BCF1040F2BD02A43B8453F4B42F40032B9
:10201000DA610CBF40F201223C4A1EE0BCF5807F31
:1020200007D0BCF5007FEED142F4003242F0090245
:1020300003E042F4003242F00A02DA61E068020290
:10204000440102F47802C00004F47C44C0B222438C
:1020500002431A622E4A5E6259611A6044E040F4FB
:102060000030D861F6E7A0682A43041D42F400322C
:10207000DC62DA6102785E62596142B1012A1CD0E9
:10208000244B4FF48871244A24481CF0C3FE428834
:102090000125D969501E21F47F4222F0100242EA44
:1020A0000022DA61184CE36943F02003E361E3693D
:1020B0009B0614D5FFF7F6FEF9E74288B9F1FF0554
:1020C000D96902F1FF3018BF012521F47F4222F0C7
:1020D000100242EA002242F01002DA61E2E7102325
:1020E000A3601DB10A4B2360BDE8F883074BFAE7F4
:1020F00040F40030064BCEF81C00CEF82460CEF839
:102100001410CEF80030EFE700B0024001020100E9
:1021100001020200000402081A0402083D0302083A
:10212000F8B58E7F0C463046FFF716FFA78AE18A86
:10213000628B1E4B41EA07412569D21B58635964E3
:10214000DD631A642168082918D19A611A615862FE
:10215000174A217F42EA0162DA61E1680A02480116
:1021600002F47802C90000F47C40C9B202430A4379
:102170001A62104A5D61DD601A60F8BD0022D86104
:102180001A61E1681EB99963084B0B4AF4E70A0229
:10219000480102F47802C90000F47C40C9B202434D
:1021A0000A43217F42EA01629A63EDE700B00240F0
:1021B000090001000102020001020300054B4FF07B
:1021C00080620360044BC3F88820BFF34F8FBFF3D6
:1021D0006F8F70476404020800E100E010B5044608
:1021E000FFF7ECFF4FF4426120461CF079F82046DF
:1021F00010BD000070B504460A4B0C300026254681
:10220000602260602672667245F8203B29460AF01B
:102210008FFC04F54263EE602035AB42FBD12046D3
:1022200070BD00BF6404020801207047542070474D
:10223000542303FB010008307047542303FB0100C3
:10224000083070470120704740F6E800704740F6BC
:10225000E80303FB01000830704740F6E80303FB86
:10226000010008307047012070471020704700EBD4
:1022700001100830704700EB011008307047084625
:1022800000F0C6BB034B10B50446036009F0A4FA86
:10229000204610BD1C05020810B50446FFF7F2FFEA
:1022A0005C2120461CF01CF8204610BD034B10B5E5
:1022B0000446036009F090FA204610BDE8040208C5
:1022C00010B50446FFF7F2FF4FF40F6120461CF0F3
:1022D00007F8204610BD0000034B10B5044603600C
:1022E00009F07AFA204610BDB404020810B504467D
:1022F000FFF7F2FF182120461BF0F2FF204610BD29
:10230000084B10B50446036000F61C10FFF7BAFF37
:1023100004F12C00FFF7CAFF04F11400FFF7DCFF03
:10232000204610BD5005020808B50248FFF7E8FF37
:1023300008BD00BF8C01002010B50446FFF7E0FF88
:1023400040F6D42120461BF0CBFF204610BD0000F4
:102350002DE9F34100F0E8F90024054600F0E8F922
:102360002346014622462846009410F0D5F8254B16
:10237000254A2046254D1A6002F052F9244810F0F3
:102380000DF82B78BFF35B8FDB0735D428461BF0A5
:10239000A9FF88B31F4C204B04F67C1604F11400EF
:1023A00004F12C0804F61C1723606060C4F8088050
:1023B000E760266109F012FA184B4046636109F0A4
:1023C0000DFA174B3846E36209F008FA154B04F68C
:1023D0007810C4F81C3903F01FFA224604F678116D
:1023E000304602F05BFA304600F012FB28461BF044
:1023F00085FF0D481CF02CFD0C4802B0BDE8F041F3
:10240000FFF714BC18A90020001900208801002043
:10241000080000208C01002050050208B4040208C6
:10242000E80402081C05020829230008841800207B
:10243000014809F020BC00BF8418002070B5244B6F
:10244000244C254E254D23603046FFF7D3FE284609
:1024500013F0E8F8224B00224FF480714FF4F07033
:10246000DC60204C1A8583F82A20DA621A861A6604
:1024700083F86C201A67C3E912121B49C3E91912C9
:102480004FF080715967012183F8781017490B606C
:10249000174908804FF48871C3E90422C3E9062272
:1024A000C3E90822C3E90E22C3E91022C3E91422BA
:1024B000C3E91622C3E9016521800E4C83F834205C
:1024C00022700D4C0D4A20800D481A60018070BDAD
:1024D000FCFF0108600C0020640C0020041900209F
:1024E00084180020B2A8002001000001BCA8002030
:1024F000B0A80020B4A80020B6A80020E000020880
:10250000B8A800200148FFF759BE00BF640C0020A6
:10251000104A002370B5C2F88430BFF34F8FD2F851
:10252000803043F6E074C3F3C900C3F34E335B015C
:1025300003EA0406014646EA81750139C2F874527D
:10254000F9D2203B13F1200FF2D1BFF34F8FBFF32D
:102550006F8F70BD00ED00E0034B902283F85A238B
:1025600083F85823704700BF00E100E0094A0A4998
:10257000D3680A48C3F30A03013B9BB20B8011697D
:10258000C1F30A01013901801364536B43F0010365
:1025900053637047006801407E1900207C190020B9
:1025A000014B986A704700BF84680140024B0122CA
:1025B000996243F8602C704784680140034B5B6963
:1025C000DB0301D5FFF7A4BF704700BF00ED00E0BB
:1025D00070B5044609F03DFB2368DD6D0CF0C2FECA
:1025E00001462046A84723682046054AD3F8805074
:1025F0004FF040410023AC46BDE87040604700BF4B
:1026000000FC03C009F00CBB09F016BB08B509F0CB
:10261000D3FA044B5B69DB0303D5BDE80840FFF741
:1026200077BF08BD00ED00E009F02FBC034B4FF071
:1026300080629A604FF080729A60704700E100E01B
:10264000084B4FF08062C3F88820BFF34F8FBFF371
:102650006F8F4FF08072C3F88820BFF34F8FBFF3A6
:102660006F8F704700E100E0134B144A1B6C118818
:102670008B4210B5124C13D1124B198804F0E2FDB5
:10268000226892F86630013382F86630FFF7EAFB81
:1026900020680AF0C7F80020BDE81040FFF7ACBA88
:1026A00004F0D0FD0020FFF7A8FA20680368BDE819
:1026B0001040DB69184700BF006801407E19002008
:1026C000BCA800207C190020704710B504460421E6
:1026D0001BF006FE204610BD08B5062921D8DFE80C
:1026E00001F004080C1014181C0001F0E5FF00684C
:1026F00008BD01F0E1FF4068FAE701F0DDFF806806
:10270000F6E701F0D9FFC068F2E701F0D5FF0069F4
:10271000EEE701F0D1FF4069EAE701F0CDFF806903
:10272000E6E70020E4E70000004870477005020873
:102730000620704713B5002451B1036801AA019423
:102740008DF803409C680DF10303A04702B010BD53
:102750000846FBE74089704780897047808870474A
:1027600083798088184480B27047C07900F07F0078
:102770007047C079C0097047704710B504460821FA
:102780001BF0AEFD204610BD704700F5967308683B
:10279000496803C37047704770474160704770478E
:1027A0000123037270477047034608469A6B8A42BA
:1027B00010B408D00A68B3F95010146D00222346F3
:1027C0005DF8044B18475DF8044B7047704770473D
:1027D000704700000B680846024900221B6DB1F9E2
:1027E00000101847B0A8002030B444680346C268FF
:1027F0009B68551004EB6200D20748BF625930BC99
:1028000048BFD358184743682BB183682BB9C068B9
:1028100000F001007047184670470120704710B45F
:1028200041680346C2689B68541001EB6200D207FE
:1028300048BF0A595DF8044B48BFD358184743684E
:102840002BB183682BB9C06800F0010070471846AF
:1028500070470120704710B504460C211BF040FD65
:10286000204610BD10B5044610211BF039FD20464E
:1028700010BD10B504464FF4AC711BF031FD20467D
:1028800010BD10B5044654211BF02AFD204610BD92
:1028900010B5044610211BF023FD204610BD10B5D5
:1028A0000CF060FD0368BDE810401B6B184700008A
:1028B000054B01461B782BB1406818B103680C31F9
:1028C0001B6E1847704700BFBBA800201F4B1B782A
:1028D00010B5044613B90123037210BD90F84D00E2
:1028E00094F84C300130C0B2984284F84D0024D89E
:1028F000B4F94E2000210EF0B8F910F0010283B2B5
:1029000021D04FF6FF710028D8BF0A461344A4F81F
:102910005030B4F8501004F10C00238A0022C91A78
:1029200009B2A4F850100DF00BFD606804F13C01F1
:102930000368BDE810405B6F184701232372002332
:1029400084F84D30C9E7A4F85000E2E7BBA80020A6
:1029500010B50446D0F83C0158B10368DB689847CD
:1029600038B1D4F83C0103689B6898470023C4F849
:102970003C3110BD1FB50C4B04461B788BB10B4B83
:102980001C226946CDE9003040680123CDE90223CD
:1029900003685B6F9847606804F10C010368DB6DA6
:1029A000984704B010BD00BFBBA80020EC0B020884
:1029B000F8B5044617460E460CF03EFD104B0025B8
:1029C0001C6029460F4BC4E954760F4E23603068D3
:1029D0000E4BC4E95255C4E950350368C4E94E555D
:1029E0009B689847284601F01BFE336893F87620D1
:1029F0000AB1D86C00B9986814F045FB2046F8BDC0
:102A000008A90020840B0208BCA800206C0B020857
:102A1000064BC0F84401C0F848310023C0F84C31DF
:102A200000F5A073C0F83C31704700BFAD2B000823
:102A3000064BC0F84401C0F848310023C0F84C31BF
:102A400000F5A073C0F83C31704700BF8D2D000821
:102A5000064BC0F84401C0F848310023C0F84C319F
:102A600000F5A073C0F83C31704700BFE92E0008A4
:102A70002DE9F84F07469068994688460368144642
:102A8000DDF828A01B6A9847D72805D8414BA32119
:102A9000414A42481CF0BEF9606803681B6A9847C7
:102AA0000F2803D83E4BA4213B4AF2E7E0680368B5
:102AB0001B6A98470B2803D83A4BA521364AE8E70A
:102AC0000CF050FC0CF09CFCD9F8000010B103682D
:102AD000DB689847D9F8000010B103681B68984775
:102AE000386810B103685B699847D8F8000010B1E6
:102AF00003685B689847386810B103681B6898479B
:102B0000D8F8000010B103689B689847E06800217E
:102B10004FF0000B03685B6A9847234B0546C0F8EB
:102B200004B00360594680F808B0A06803685B6A87
:102B30009847064602F0DCFE6068594603685B6A07
:102B400098470446314602F0B9FEC9F80050C8F86B
:102B500000403E60E4B1231DCAF8003030463368BF
:102B6000C4F808A0DB68F4639847236820461B6814
:102B70009847294630460EF072F82B6828461B69A4
:102B800098472B6828465B6998472046BDE8F88F30
:102B90002346E1E7F80502088606020896070208C0
:102BA000DD07020880080208C80B0208D0F854317B
:102BB00007B500F59C710093044BD0F850210448F0
:102BC000FFF756FF03B05DF804FB00BFFCA8002030
:102BD000F8A800202DE9F0411B4B002605460446CD
:102BE00046600F46067245F80C3B28460AF034F85A
:102BF000164B2022A56384F84C7084F84D60A4F82D
:102C00005060C4E90F340123C4E91123104B1B7831
:102C1000B3B1104B2846104FB3F90080E368B7F901
:102C200000105B6B26619847E368414628469B6B22
:102C30009847284609F08CFF3B885B42A4F84E3049
:102C40002046BDE8F08100BF040C0208EC0B02082E
:102C5000BBA80020B2A80020B0A800202DE9F047B2
:102C6000074690689946884603681446DDF820A018
:102C70001B6A9847B0F5C47F05D23F4BA3213F4A5A
:102C80003F481CF0C7F8606803681B6A98470F2824
:102C900003D83C4BA421394AF2E7E06803681B6A79
:102CA0009847532803D8384BA521344AE8E70CF05D
:102CB00059FB0CF0A5FBD9F8000010B10368DB68E4
:102CC0009847D9F8000010B103681B689847386826
:102CD00010B103685B699847D8F8000010B1036829
:102CE0005B689847386810B103681B689847D8F844
:102CF000000010B103689B689847E06800210368F2
:102D00005B6A984714210546FFF764FFA06800211D
:102D100003685B6A9847064602F0DAFE60680021A5
:102D200003685B6A98470446314602F0F9FDC9F82A
:102D30000050C8F800403E60E4B1231DCAF80030DE
:102D400030463368C4F808A0DB68F463984723680A
:102D500020461B689847294630460DF080FF2B68B7
:102D600028461B6998472B6828465B699847204688
:102D7000BDE8F0872346E1E7F805020823090208C9
:102D800096070208DD07020880080208D0F85431CF
:102D900007B500F59C710093044BD0F8502104480E
:102DA000FFF75CFF03B05DF804FB00BFFCA8002048
:102DB000F8A800202DE9F047074690689946884614
:102DC00003681446DDF820A01B6A984740F6E70325
:102DD000984205D83F4BA3213F4A40481CF01AF8BF
:102DE000606803681B6A98470F2803D83C4BA421EE
:102DF000394AF2E7E06803681B6A9847532803D80A
:102E0000384BA521344AE8E70CF0ACFA0CF0F8FA9C
:102E1000D9F8000010B10368DB689847D9F80000C2
:102E200010B103681B689847386810B103685B6984
:102E30009847D8F8000010B103685B689847386875
:102E400010B103681B689847D8F8000010B10368F8
:102E50009B689847E068002103685B6A98471421E3
:102E60000546FFF7B7FEA068002103685B6A984734
:102E7000064601F09DFD6068002103685B6A984783
:102E80000446314601F022FDC9F80050C8F8004060
:102E90003E60E4B1231DCAF8003030463368C4F800
:102EA00008A0DB68F4639847236820461B689847AE
:102EB000294630460DF0D3FE2B6828461B699847FB
:102EC0002B6828465B6998472046BDE8F087234673
:102ED000E1E700BFF8050208460A02089607020863
:102EE000DD07020880080208D0F8543107B500F564
:102EF0009C710093044BD0F850210448FFF75AFF0F
:102F000003B05DF804FB00BFFCA80020F8A8002077
:102F1000006A7047406A704770478B888069DB0A97
:102F20000A6850F823001044704710B5C2B1137BF3
:102F3000B3B1547BD27A240204F4E0641443C2692E
:102F400098B202EB840213888B4202D192F90200FC
:102F500010BD05D80138043280B20028F3D1F7E75C
:102F60000020F5E710B5044628211BF0B9F92046EA
:102F700010BD000030B589B00446BDF8505006952C
:102F8000BDF84C5005959DF8405004959DF83C5077
:102F900003959DF8385002959DF8345001959DF8A1
:102FA000305000950DF05CFA064B20462360119BD3
:102FB000A361129BE361159B2362169B636209B0B8
:102FC00030BD00BF300C0208002070478180704780
:102FD000C1807047018170474181704770477047D9
:102FE00070477047704710B4C4880368121B848808
:102FF0001B6D091B12B25DF8044B09B218474FF65E
:10300000FF7383814FF0FF3303621368C361106065
:103010007047806A704770477047704770477047C5
:1030200090F825201AB190F8242002B1186070475A
:1030300070477047704770477047704790F82C3062
:103040002BB1026F026623B1836F43667047C26E75
:10305000F8E7436FF9E770477047704730B444684A
:103060000346C2689B68551004EB6200D20748BF54
:10307000625930BC48BFD358184743682BB18368A6
:103080002BB9C06800F00100704718467047012056
:10309000704730B444680346C2689B68551004EB1F
:1030A0006200D20748BF625930BC48BFD3581847A6
:1030B00043682BB183682BB9C06800F001007047EA
:1030C000184670470120704790F82D3080F85E3028
:1030D000704710B5044610211BF002F9204610BDC0
:1030E00010B5044610211BF0FBF8204610BD10B5AA
:1030F00004467C211BF0F4F8204610BD10B50446B0
:1031000040F6E8011BF0ECF8204610BD00F58E6398
:10311000994210B5044627D1472003F00DF8384BEB
:103120001B78082B04D1374A13680133136013E06E
:10313000042B04D1334A5368013353600CE0022B53
:1031400004D1304A93680133936005E0012B03D129
:103150002C4AD3680133D3602B4B01221A704720CD
:10316000BDE8104002F0DABF00F2AC4399421CD136
:10317000472002F0E1FF224B1B78082B03D1214AA4
:103180001368013BD2E7042B03D11E4A5368013B6D
:10319000D3E7022B03D11B4A9368013BD4E7012BF1
:1031A000DAD1184AD368013BD5E700F59D6399420F
:1031B00007D1472002F0C0FF2368DB6A204698470A
:1031C000CDE700F5A663994205D1472002F0B4FF90
:1031D00023681B6BF2E700F5AF63994205D14720E6
:1031E00002F0AAFF23685B6BE8E700F5B863994239
:1031F00005D1472002F0A0FF23689B6BDEE710BDDE
:10320000FC1A0020841900208019002010B5044603
:10321000006B50B10368DB68984730B1206B2146E2
:103220000368BDE810409B68184710BD08B500F161
:10323000C40399420FD1472002F07EFF204A137841
:1032400083F08003137001221E4B1A704720BDE8E3
:10325000084002F063BF00F5A07399420BD14720EC
:1032600002F06AFF164A137883F0400313700122BC
:10327000144B5A70EAE700F5DE739942DBD000F593
:103280000E7399420BD1472002F056FF0C4A137877
:1032900083F02003137001220A4B9A70D6E700F5E1
:1032A0002D7081420BD1472002F046FF044A13786B
:1032B00083F0100313700122024BDA70C6E708BDD9
:1032C0009419002095190020074A02600022C0E9E5
:1032D0000122C0E90322C0E90522C0E907224FF418
:1032E00080728284704700BF1C260208036870B594
:1032F0000446DB6A154698472368204629461B6B1F
:10330000BDE87040184770B504461D46BDF9106011
:10331000FFF7ECFF2368294620465B6B984723683C
:10332000314620469B6BBDE87040184710B50446F7
:10333000262200211BF0FAFD2046FFF7C5FF044BB3
:1033400020462360FF2384F826300023A36210BDAB
:103350007C200208036880F82C10D3F884301847CA
:1033600070B50D4690F83430044690F82C102A7948
:10337000A2F1020CDCF1000646EB0C06012A80F8F3
:10338000346012D09BB981F00101FFF7E3FF23689D
:1033900020465B6998472B79012B08D1236820468A
:1033A000D3F88030BDE870401847002BF6D070BDD0
:1033B00010B50446FFF7BAFF034B204623600023F5
:1033C000E362238610BD00BF2022020810B5044628
:1033D000262200211BF0AAFD2046FFF775FF074BB0
:1033E0004FF47F0220462360054BA3624FF6FF7324
:1033F000A3850023C4E90C32238710BDD41F020823
:10340000F005020810B50446FFF7E0FF024B204626
:1034100023600023E36310BD7821020873B54FF6E3
:10342000FF73018F0646994233D01C4B1B682BB9A2
:103430001B4BAE211B4A1C481BF0ECFC1B4A12889C
:103440008A4203D81A4BAF21164AF4E713F8112029
:10345000184B1B6853F82250174B186801F01CF9E1
:103460002B68014601909B6A284698472B680446C2
:1034700001991B6C2846984714FB00F42B682846DA
:10348000E4B201995B6A9847044486F8454002B06B
:1034900070BD002380F84530F9E700BF0CA900207B
:1034A000800C0208C20C0208F00C020810A90020CF
:1034B000370D020814A9002018A9002070B5044691
:1034C000FFF702FF4FF47F4300252646A385012323
:1034D000A56284F824300C4B256384F8345046F8F8
:1034E000383B3046FFF764FF2A4629463046C4E998
:1034F0001B55C4E91D55FFF7F9FE2046314608F07B
:1035000015FA204670BD00BF940D02082DE9F04F5A
:10351000044600254FF6FF76DFF8EC8304F1980BA4
:10352000DFF8E89304F6D8074FF0420A2DED108B30
:1035300095B00DF017FA2246E74BE56342F8403BA1
:10354000104608EE102AFFF7F1FE04F16C0318464E
:103550000993FFF7EBFE262229465846ADF848604E
:103560001BF0E4FC5846FFF7AFFEDC4B12A95846AF
:10357000C4F89830BDF8483084F8C0604FF48876BD
:10358000A4F8BE300AF0E9F804F1C403184608EEC6
:10359000903AFFF793FF04F5A073184609EE103A2E
:1035A000FFF78CFF04F5DE73184609EE903AFFF73B
:1035B00085FF04F50E7318460AEE103AFFF77EFFFA
:1035C00004F52D7318460AEE903AFFF777FF04F5DD
:1035D0004C7318460BEE103AFFF714FF04F55C73BA
:1035E00018460BEE903AFFF70DFF04F56C73184682
:1035F0000CEE103AFFF706FF04F57C7318460CEE4C
:10360000903AFFF7FFFE04F5866318460DEE103A78
:10361000FFF7F8FE04F58E63184606930AF076F875
:1036200004F2AC43184607930AF070F804F59D6362
:1036300018460DEE903A0AF0D5F904F5A66318463F
:103640000EEE103A0AF0CEF904F5AF6318460EEE0E
:10365000903A0AF0C7F904F5B86318460FEE103A2D
:103660000AF0C0F904F5C16318460A93FFF7A0FEFB
:1036700004F23C6318460B93FFF79AFE04F5CE6301
:1036800018460C93FFF794FE04F2A46318460D93BA
:10369000FFF78EFE04F5DB6318460893FFF796FEEE
:1036A00004F2147318460FEE903AFFF7ABFE04F2E3
:1036B000547318460393FFF7A5FE04F2947318465B
:1036C0000493FFF79FFE04F2D47318460593FFF7A7
:1036D00099FE834B2A462946C4F8C83818EE100ACA
:1036E000804B0096C4F8D0387F4BC4F8CC48C4F85F
:1036F000D8387E4BC4F8D458C4F8E0384FF4F0738F
:10370000C4F8DC48C4F8E458FFF7FDFD4FF07F43F0
:103710002A4629460998A3664FF4F0730096FFF7EE
:10372000F2FD4FF0FF3309220E215846C4F89430C1
:10373000FFF7DCFD4FF0050312A95846ADF84830FD
:103740000AF00BF8012118EE900AFFF703FE96230A
:10375000674E2A46294604F1FC0000932F23FFF709
:10376000D2FD18EE900AA4F82C51C4E94E86C4E9A3
:103770004C96FFF763FC962320221C2118EE900A3A
:1037800000932F23FFF7BFFD012119EE100AC4F8A3
:10379000F470FFF7DFFD46232A46294604F5BC7086
:1037A000CDF800A0FFF7AFFD19EE100AA4F8A8515C
:1037B000C4E96D86C4E96B96FFF740FC462374228A
:1037C000572119EE100ACDF800A0FFF79CFD01214A
:1037D00019EE900AC4F87071FFF7BCFD96232A46D3
:1037E000294604F5FA7000932F23FFF78CFD19EE9C
:1037F000900AA4F82452C4E98C86C4E98A96FFF79B
:103800001DFC96232022A82119EE900A00932F2355
:10381000FFF779FD01211AEE100AC4F8EC71FFF7E9
:1038200099FD2D232A46294604F51C700093462352
:10383000FFF769FD1AEE100AA4F8A052C4E9AB869E
:10384000C4E9A996FFF7FAFB2D23C92257211AEEE6
:10385000100A00934623FFF756FD01211AEE900A45
:10386000C4F86872FFF776FD2A462946462304F518
:103870003B70CDF800A0FFF746FD1E4B1AEE900AF4
:10388000A4F81C53C4F82093C4F82C63C4E9C938C5
:10389000FFF7D4FB4623202257211AEE900ACDF8D9
:1038A00000A0FFF730FDC4F8E4728E226A211BEEFF
:1038B000100A114FFFF71AFD4FF07F4304F614086A
:1038C000A4F86453C4F860333B680BBB0B4BAE21C8
:1038D0000B4A0C481BF09EFA580E02082C230208D3
:1038E000280E02080D310008400E02082D32000893
:1038F0000000DEFF10ADE6FF0CA90020800C0208DE
:10390000C20C0208F00C0208663300FF8A8A8AFFA4
:10391000034E3388052B09D8024BAF21024AD8E762
:1039200010A90020370D0208C20C0208DFF8A4938A
:10393000052104F6280AD9F8000000F0ADFEE44A9B
:1039400003460A2140460EF01BFD1BEE100AC4F888
:103950006C8309F06BFBDFF88083042312A91BEE54
:10396000100ACDF84880ADF84C3009F07CFB62229B
:1039700025211BEE900AFFF7B9FC4FF07F43A4F816
:10398000A453C4F8A0333B68002B9FD03388072B87
:10399000C2D90721D9F8000000F07EFECC4A0346C8
:1039A0000A2150460EF0ECFC1BEE900AC4F8ACA3C2
:1039B00004F63C0A09F03AFB062312A91BEE900A12
:1039C000ADF84C30CDF8488009F04DFBD8226A2183
:1039D0001CEE100AFFF78AFC4FF07F43A4F8E45373
:1039E000C4F8E0333B68002B3FF470AF3388092BF9
:1039F00092D90921D9F8000000F04EFEB44A0346DE
:103A00000A2150460EF0BCFC1CEE100AC4F8ECA3D0
:103A100004F5056A09F00AFB082312A91CEE100A36
:103A2000ADF84C30CDF8488009F01DFB3A226A21F0
:103A30001CEE900AFFF75AFC4FF07F43A4F8245481
:103A4000C4F820343B68002B3FF440AF33880B2B85
:103A50007FF662AF0B21D9F8000000F01DFE9C4AF2
:103A600003460A2150460EF08BFC1CEE900AC4F867
:103A70002CA409F0DBFA0A2312A91CEE900AADF877
:103A80004C30CDF8488009F0EEFA6222B2211DEEEA
:103A9000100AFFF72BFC4FF07F43A4F8645404F6A0
:103AA0006405C4F860343B68002B3FF40FAF3388E3
:103AB0000D2B7FF631AF0D21D9F8000000F0ECFDA1
:103AC000834A03460A21284600260EF059FC1DEEC3
:103AD000100AC4F86C54CA4609F0A8FA0C2312A9BB
:103AE0001DEE100AADF84C304FF00109CDF84880BA
:103AF00009F0B9FAC1224FF4BE71069804F6C8085D
:103B0000FFF7F4FB12AA03230FA9009211AA06984B
:103B10004FF00F05ADF844300227ADF8483013469A
:103B200010AAADF84090ADF83C6009F04CFD4FF0A4
:103B300016024FF482710798A4F8A854A4F8AA2496
:103B4000C122C4F89884FFF7D1FB12AA11A80FA9CB
:103B5000009210AA03460798ADF84090ADF8447063
:103B6000ADF84870ADF83C6009F02DFD4FF016013E
:103B70002F221DEE900AA4F8E454A4F8E614E621DE
:103B8000C4F8D4844FF0FF35FFF7B0FB12AA11A997
:103B90001DEE900AADF84890ADF8446009F0A5FA22
:103BA0000E231DEE900AA4F82035FFF737FC2F22D4
:103BB0004FF491711EEE100AC4F81085C4F8245514
:103BC000C4F82855FFF792FB11A912AA1EEE100A9D
:103BD000ADF84890ADF8446009F087FA4FF00F0255
:103BE0001EEE100AA4F86825FFF718FC2F224FF4E8
:103BF000AF711EEE900AC4F85885C4F86C55C4F82D
:103C00007055FFF773FB12AA11A91EEE900AADF8CA
:103C10004890ADF8446009F068FA10231EEE900A4F
:103C2000A4F8B035FFF7FAFB2F224FF4CD711FEE49
:103C3000100AC4F8A085C4F8B455C4F8B855FFF705
:103C400055FB12AA11A91FEE100AADF848904FF0CB
:103C50003B09ADF8446009F048FA11231FEE100A41
:103C6000A4F8F835FFF7DAFBC4F8E8854FF07F4891
:103C700031237822EC210A98CDF80090C4F8FC5545
:103C8000C4F80056FFF73FFB312378224FF49471BC
:103C90000B98A4F83876CDF80090C4F83056C4F8E4
:103CA0003486FFF730FB312378224FF4B2710C9841
:103CB000A4F86C76CDF80090C4F86456C4F8688611
:103CC000FFF721FB312378224FF4D0710D9805E0E6
:103CD000890D020818A90020F0050208A4F8A076B2
:103CE000CDF8009004F67809C4F89856C4F89C867C
:103CF000FFF709FB09224FF499710898A4F8D476CC
:103D0000C4F8CC56C4F8D086FFF7F0FAA44B12A939
:103D1000089812931223A34FC4F80887A4F80C67DD
:103D2000ADF84C3009F09FF98722F6211FEE900A7A
:103D3000FFF7DCFA3B68C4F84487A4F84867002B17
:103D40003FF4C4AD984D2B88142B7FF6E5AD1421BC
:103D5000DAF8000000F0A0FC944A03460A21484625
:103D60000EF00EFB1FEE900AC4F8509704F68C0973
:103D700009F05CF98A4B12A91FEE900A12931323E3
:103D8000ADF84C3009F06FF987224FF49971039820
:103D9000FFF7ACFA3B68C4F88487A4F88867002B67
:103DA0003FF494AD2B88162B7FF6B6AD1621DAF8CA
:103DB000000000F071FC7D4A03460A2148460EF0DF
:103DC000DFFA0398C4F8909704F50A6909F02EF910
:103DD000734B12A9039812931523ADF84C3009F0D8
:103DE00042F987224FF4B7710498FFF77FFA3B68D6
:103DF000C4F8C487A4F8C867002B3FF467AD2B88CC
:103E0000182B7FF689AD1821DAF8000000F044FC89
:103E1000664A03460A2148460EF0B2FA0498C4F8EE
:103E2000D09709F003F95E4B12A904981293172357
:103E3000ADF84C3009F017F987224FF4D571059889
:103E4000FFF754FA3B68A4F8086804F6B406C4F80F
:103E50000488002B3FF43AAD2B881A2B7FF65CAD1B
:103E60001A21DAF8000000F017FC504A03460A2134
:103E70003046251D0EF084FA0598C4F8106809F044
:103E8000D5F8474B12A9059812931923ADF84C3079
:103E900009F0E9F818EE101A284607F047FD0999CD
:103EA000284607F043FD5946284607F03FFD18EE27
:103EB000901A284607F03AFD19EE101A284607F026
:103EC00035FD19EE901A284607F030FD1AEE101A4B
:103ED000284607F02BFD1AEE901A284607F026FD1B
:103EE0001BEE101A284607F021FD1BEE901A2846FB
:103EF00007F01CFD1CEE101A284607F017FD1CEEFB
:103F0000901A284607F012FD1DEE101A284607F0F9
:103F10000DFD0699284607F009FD0799284607F088
:103F200005FD1DEE901A284607F000FD1EEE101A42
:103F3000284607F0FBFC1EEE901A284607F0F6FC18
:103F40001FEE101A284607F0F1FC0A99284607F0E0
:103F5000EDFC0B99284607F0E9FC0C99284607F080
:103F6000E5FC0D99284607F0E1FC0899284607F082
:103F7000DDFC1FEE901A284607F0D8FC039928466E
:103F800007F0D4FC0499284607F0D0FC2846059990
:103F900007F0CCFC204615B0BDEC108BBDE8F08FCF
:103FA000F00502080CA9002010A90020890D0208C4
:103FB0007047704781857047808D704710B5044603
:103FC0003C211AF08DF9204610BD10B50446D821C9
:103FD0001AF086F9204610BD08B5B0F8D43053B1B8
:103FE000013B9BB2A0F8D4302BB90BF0BBF9BDE874
:103FF0000840FEF71DBD08BD036870B504465B6B45
:10400000154698472368204629469B6BBDE87040BB
:10401000184700002DE9FF41044600250CF0A2FCE2
:104020003A4B264604F16C08E56304F1980746F81C
:10403000403B3046FFF77AF94046FFF777F94FF4F7
:1040400080724FF6FF7303A9A4F8BC203846304AAB
:10405000A4F8BE30C4F8982084F8C030ADF80C3015
:10406000C4E92755C4E92955C4E92B55C4E92D55A0
:1040700009F073FB274B2A462946C4F8983030468E
:1040800084F8C150A4F8C250A4F8C450C4F8D05069
:10409000A4F8D450FFF72AF930464FF488724FF451
:1040A000F071FFF7A9FF4FF07F432A462946A36628
:1040B0004046FFF71BF940464FF488724FF4F07109
:1040C000FFF79AFF4FF0FF3359223846C4F8943077
:1040D000BA21FFF70BF9042303A93846ADF80C30D9
:1040E00009F03BFB201D314684F8C050019007F0D9
:1040F0001DFC4146019807F019FC0198394607F06C
:1041000015FC204604B0BDE8F08100BF0C0F02088A
:104110002C2302089C0E020890F8293070B5044642
:10412000002B34D0408DA38D013080B29842608541
:104130002DD3218EC01A628EE38D80B2521A656B28
:10414000002112B2A84794F83030184484F82800AF
:1041500020460CF0C5F8A38DE18D628D0B449A4288
:1041600015D3002384F82930E3850BF0FBF82146B2
:104170000BF030F9A06B50B10368DB68984730B1A1
:10418000A06B21460368BDE870409B68184770BD6E
:1041900008B5FFF7C1FF08BD70B590F8C120002534
:1041A000044600F19806C0F8D05022B90BF0DAF8B6
:1041B00031460BF0DDF894F8C0300D4AA4F8C83051
:1041C000FF23C4F8CC200122A4F8CA30782384F855
:1041D000C120A4F8C630D4F8C420A4F8C2501D46AB
:1041E00012B93046FFF798FFA4F8D45070BD00BF55
:1041F000D50C01087047000030B5154D8DB02C78F6
:10420000BFF35B8F14F001041FD128461AF06AF83F
:10421000D8B13F238D220F4907930F4B0F480693C8
:104220000F4B089405930123CDE903430293042324
:10423000CDE90944CDE900330D23FEF79BFE284666
:104240001AF05CF807481AF003FE04480DB030BDC0
:104250009C190020EC370690CC3E0208A0190020E3
:10426000380F0208F54100087047000030B5154DC1
:104270008DB02C78BFF35B8F14F001041FD128465A
:104280001AF030F8D8B13F2387220F4907930F4B1C
:104290000F4806930F4B089405930123CDE9034380
:1042A00002930423CDE90944CDE900330F23FEF73F
:1042B00061FE28461AF022F807481AF0C9FD0448A2
:1042C0000DB030BDC8190020A43F0690F43E02088E
:1042D000CC190020A40F02086942000870470000B2
:1042E00030B5164D8DB02C78BFF35B8F14F0010400
:1042F00020D1284619F0F6FFE0B13F2304221049EF
:104300000793104B10480693104B08940593012314
:10431000CDE9034302930723CDE90944CDE90032F7
:1043200019238B22FEF726FE284619F0E7FF0848DE
:104330001AF08EFD04480DB030BD00BFF419002006
:10434000084706908C3F0208F8190020A80F0208C1
:10435000DD4200087047000030B5164D8DB02C7856
:10436000BFF35B8F14F0010420D1284619F0BAFF87
:10437000E0B13F23042210490793104B10480693E5
:10438000104B089405930123CDE9034302930A23BC
:10439000CDE90944CDE9003223238C22FEF7EAFD62
:1043A000284619F0ABFF08481AF052FD04480DB03A
:1043B00030BD00BF201A0020A44E0690984102088C
:1043C000241A00201010020855430008704700000E
:1043D00030B5164D8DB02C78BFF35B8F14F001040F
:1043E00020D1284619F07EFFE0B13F230422104976
:1043F0000793104B10480693104B08940593012324
:10440000CDE9033302930223CDE90944CDE900321B
:104410000A23BE22FEF7AEFD284619F06FFF0848BA
:104420001AF016FD04480DB030BD00BF4C1A002034
:104430004C560690A0450208501A00207810020839
:10444000CD4300087047000030B5164D8DB02C7874
:10445000BFF35B8F14F0010420D1284619F042FF0E
:10446000E0B13F23042210490793104B10480693F4
:10447000104B089405930123CDE9033302930523E0
:10448000CDE90944CDE900321423BE22FEF772FDC6
:10449000284619F033FF08481AF0DAFC04480DB03A
:1044A00030BD00BF781A0020B0600690D4450208E5
:1044B0007C1A00207C100208454400087047000068
:1044C00030B5164D8DB02C78BFF35B8F14F001041E
:1044D00021D1284619F006FFE8B13F2301221049F7
:1044E0000793104B10480693104B08940593022332
:1044F000CDE903330423CDE901320823BE22009322
:104500002823CDE90944FEF735FD284619F0F6FECB
:1045100007481AF09DFC04480DB030BDA41A0020D5
:10452000146B0690E8470208A81A002080100208C1
:10453000BD44000800207047002070470EB403B54A
:1045400003AB002153F8042B01930BF0A7FD02B03D
:104550005DF804EB03B070470CB407B504AB53F837
:10456000042B01930BF09AFD03B05DF804EB02B04D
:1045700070470000C36B10B5044673B3038E2BB9AC
:10458000184BBF21184A19481AF044FCC38D00EBA0
:1045900043035B8B0BB30DF03BF9238E012B03D848
:1045A000134BC421134AEEE7E28D40F63F10531C33
:1045B0009BB2092B194688BFA3F10A0104EB410104
:1045C000498B814209D10A2B04EB420228BF002308
:1045D000508B04EB4303588351832046BDE81040C1
:1045E0000CF0FABF841002088D100208381102087E
:1045F00082110208901102080CF0A8BF10B586B015
:1046000002AC84E806001A460AAB214605930193E2
:10461000099B0093089B0AF029FA06B010BD000020
:1046200038B518BB124B13481B681349B3B11A684D
:104630009C681A441C4402605A681A440A600F4B72
:1046400000221A8000F038F8054600F033F80C4BD1
:104650001C600C4B1D600C4B188007E00B4B03607B
:104660000B4B0B600B4B1C68002CE8D138BD00BF16
:10467000D01A0020D41A0020D81A0020DC1A0020FA
:104680000CA9002014A9002010A90020E4750690B0
:104690007875069064760690044B1B6853F82100E9
:1046A000034B1B6803EB4000704700BFD81A002083
:1046B000D41A00201B20704700487047E01A0020E1
:1046C00010B50B4CFFF7C0FE2060FFF7F9FE6060ED
:1046D000FFF77EFEA060FFF7C9FDE060FFF700FE78
:1046E0002061FFF739FE6061FFF786FDA06110BD14
:1046F000E01A00207047704710B504464FF4C471AB
:1047000019F0EEFD204610BD2DE9F04F044687B0AC
:1047100000250CF027F92646544B04F16C0B04F1EC
:10472000980AE56304F1D40946F8403B3046FEF7A9
:10473000FDFD5846FEF7FAFD04F58878504604F56D
:10474000A677FEF743FE4846FEF740FE4046FEF7DA
:104750003DFE3846FEF73AFE4FF488732A46294656
:10476000304600934FF4F073FEF7CDFD4FF07F43DA
:104770002A462946A3664FF48873584600934FF49F
:10478000F073FEF7C0FD4FF0FF3374225046C4F8BB
:1047900094308621FEF7AAFD4FF07F4304A95046CE
:1047A000C4F8C830324BA4F8CC500493ADF8145080
:1047B00008F059FC484674224FF49971FEF796FDB3
:1047C0002B4B4FF07F4204A9049301234846C4F8C1
:1047D0000421A4F80851ADF8143008F044FC404618
:1047E00074224FF49971FEF781FD214B4FF07F4207
:1047F00004A9049302234046C4F84021A4F844517C
:10480000ADF8143008F02FFC384674224FF499713B
:10481000FEF76CFD164B4FF07F4204A9049303236F
:10482000C4F87C213846A4F88051ADF8143008F063
:104830001AFC201D3146039007F078F8594603987A
:1048400007F074F85146039807F070F8494603984A
:1048500007F06CF84146039807F068F8039839466A
:1048600007F064F8204607B0BDE8F08F6C1202082C
:10487000F0050208704710B504464FF4AC7119F00A
:104880002FFD204610BD10B50446D0F8540100F0AD
:10489000C7FF2046BDE810400AF03CBC10B50446F6
:1048A000FEF786F8014B2046236010BDA0120208D7
:1048B000704704387047704710B50446102119F04E
:1048C0000FFD204610BDA0F10400F5E70022C160F5
:1048D0008260044A10B502F108042032046042608C
:1048E00010BD00BFDC1202087047704708B5FEF724
:1048F000A4FB472001F012FC142203490348BDE841
:10490000084004F01BBC00BF701B002078AC0020E6
:1049100000230A2010B5054C237001F0A9FB044BBD
:1049200096221A700823237010BD00BFFC1A0020C5
:10493000381B002000230A2010B5054C237001F01D
:1049400097FB044B96221A700423237010BD00BFFE
:10495000FC1A0020381B002000230A2010B5054C4B
:10496000237001F085FB044B96221A7002232370FA
:1049700010BD00BFFC1A0020381B002000230A20B5
:1049800010B5054C237001F073FB044B96221A708E
:104990000123237010BD00BFFC1A0020381B00202B
:1049A00010B5044640F6E80119F09AFC204610BD07
:1049B00010B50446FEF7AAFD014B2046236010BD4A
:1049C0001013020810B44367019B5DF8044B836722
:1049D0000368C0E91B12D3F88430184700000000B8
:1049E000634B2DE9F04F2DED028B1A7887B0614DA6
:1049F0000446013205931A702A78012A06D114223E
:104A00005D495E4804F09AFB00232B705A4E5C4DC2
:104A100032787378FB2ADFF874B15A4F40F09E80E9
:104A2000A02B40F09D80F37CA52B40F09580B178C1
:104A3000092900F29180B279092A00F28D80B37AB7
:104A4000092B00F2898096F80EC0BCF1090F00F224
:104A50008380F078B2EE047ADFF8348100EB012035
:104A6000F17907EE900A01EB0221F27AF8EEE77A8B
:104A7000707902EB0322F37BC7EE876A07EE901A88
:104A800003EB0C23F8EEE77AC5ED006AC7EE876A00
:104A900007EE902AF8EEE77AC5ED016AC7EE876A5D
:104AA00007EE903A337900EB0320F8EEE77AC5ED94
:104AB000026AC7EE876A07EE900AF8EEE77A17EE09
:104AC000900AC5ED036AFBF757FD00222E4BFBF75A
:104AD000D5FEFCF743F8337AC8F80000707A00EB93
:104AE000032007EE900AF8EEE77A17EE900AFBF73C
:104AF00043FD0022244BFBF7C1FEFCF72FF8337B6C
:104B0000C8F80400707B00EB032007EE900AF8EE73
:104B1000E77A17EE900AFBF72FFD00221A4BFBF7FE
:104B2000ADFEFCF71BF8337CC8F80800707C00EB86
:104B3000032007EE900AF8EEE77A17EE900AFBF7EB
:104B40001BFD114B0022FBF799FEFCF707F8B37C25
:104B5000C8F80C008BF80030002306E0A02BFBD037
:104B60003B680133B3F5967F14D23B6018E000BF79
:104B7000301B00205C1B0020701B002078AC002044
:104B8000201B0020341B002000002440941900202A
:104B90000C00002000233B600AF0E4FBFDF748FF17
:104BA000F3EE067A95ED007A002304F1C40904F5CA
:104BB000DE780121B4EEE77A95ED017A737048460C
:104BC000F1EE10FAB4EEE77A95ED027A9CBF00237D
:104BD0002B60F1EE10FAB4EEE77A95ED037A9CBF04
:104BE00000236B60F1EE10FAB4EEE77A9CBF00236D
:104BF000AB60F1EE10FA9CBF0023EB609BF9003034
:104C0000002B80F26A81FEF7A5FB01214046FEF7EA
:104C1000A1FBF3EE0E7A95ED008AB4EEE78AF1EE91
:104C200010FA00F20A81BE4E6FF0FF02BD4B4846FB
:104C3000BD490096FFF7C6FEBA4B6FF0FF02009623
:104C4000B9494046FFF7BEFE48460BF049FB4046D7
:104C50000BF046FB9BF8003004F5A07801215E06BE
:104C6000404640F1BB81FEF775FBF3EE0E7A95ED01
:104C7000018AB4EEE78AF1EE10FA00F27581A84BD2
:104C80006FF0FF020093A74BA7494046FFF79AFE3B
:104C9000404604F50E780BF023FB9BF80030012111
:104CA00040469A0640F1DC81FEF754FBF3EE0E7AA3
:104CB00095ED028AB4EEE78AF1EE10FA00F29681E1
:104CC000974B6FF0FF020093964B97494046FFF7D2
:104CD00079FE404604F52D780BF002FB9BF800307E
:104CE00001214046DB0640F1FD81FEF733FBF3EE88
:104CF0000E7A95ED038AB4EEE78AF1EE10FA00F22F
:104D0000B781874B6FF0FF020093864B8649404680
:104D1000FFF758FE854F40460BF0E2FA844E3B7891
:104D2000082B40F0EF814FF07F4804F21479C4F86B
:104D3000448748460BF0D4FA04F25470C4F88487D0
:104D40000BF0CEFA04F29470C4F8C4870BF0C8FAE2
:104D500004F2D470C4F804880BF0C2FA704B4846D1
:104D6000C4F844370BF0BCFA3378013B3370714B15
:104D70001B78012B40F0D88296236F4A6F4933701D
:104D8000096813686E480B446E49222B03600B6060
:104D900000F2B081232303600B6000231360654B96
:104DA00000221A700122684B1A70059B1B781D2B7C
:104DB00040F2B0849BF8003095ED008A03939BF994
:104DC0000030002B80F2148318EE100AFBF7D4FB9E
:104DD0005C4B06460F46D3F800A05046FBF7BAFBE3
:104DE00000225A4B80468946FBF766FA02460B467C
:104DF00030463946FBF79EFE002800F09B82404675
:104E000049463FA3D3E90023FBF758FA02460B4675
:104E100030463946FBF784FE002800F08B820123E0
:104E20004B4A13604A4B1A684A4B002A40F0A28250
:104E3000BDEEC88A83ED008AA0E218EE100AFBF7E7
:104E40009BFB06460F4630A3D3E90023FBF772FE17
:104E500090B1DFED417AB4EEE78AF1EE10FA0BD5AE
:104E60002F4E48462F4B3D4A2F490096FFF7AAFD8B
:104E70002C4B3A4A0096E3E625A3D3E900233046BB
:104E80003946FBF757FE90B1DFED357AB4EEE78A8D
:104E9000F1EE10FA0BD5224E4846224B314A2249F8
:104EA0000096FFF78FFD1F4B2E4A0096C8E61AA307
:104EB000D3E9002330463946FBF73CFE00283FF497
:104EC000C3AE174E4846174B324617490096FFF7B8
:104ED00079FD144B32460096B2E6FEF73BFA01210B
:104EE00040460F4EFEF736FA0F4A0E4B4846114623
:104EF0000096FFF767FD0C4A0A4B11460096A0E6A4
:104F00009A9999999999D93F6666666666663E4010
:104F10003333333333334440333333333333494020
:104F20000000FFFF663300FF8A8A8AFFFC1A002018
:104F3000381B002080190020841900201C0000204C
:104F4000001B00200C000020101B00200000E03F90
:104F50003C1B0020001B002000002042009BFFFFA4
:104F600000004842005FFFFF18EE100AFBF704FB49
:104F700006460F46AEA3D3E90023FBF7DBFD58B18D
:104F8000DFEDAD7AB4EEE78AF1EE10FA04D5AB4B63
:104F9000AB4A0093AB4B77E6A1A3D3E9002330469D
:104FA0003946FBF7C7FD58B1DFEDA77AB4EEE78AC3
:104FB000F1EE10FA04D5A14BA44A0093A14B63E68D
:104FC00099A3D3E9002330463946FBF7B3FD002807
:104FD0003FF45EAE994A9B4B009255E6FEF7BAF954
:104FE000964B9B4A00931146964B4EE618EE100ADC
:104FF000FBF7C2FA06460F468DA3D3E90023FBF761
:1050000099FD58B1DFED8C7AB4EEE78AF1EE10FA33
:1050100004D58A4B8A4A00938A4B56E680A3D3E98B
:10502000002330463946FBF785FD58B1DFED867A1F
:10503000B4EEE78AF1EE10FA04D5804B834A009370
:10504000804B42E678A3D3E9002330463946FBF78C
:1050500071FD00283FF43DAE784A7A4B009234E669
:10506000FEF778F9754B7A4A00931146754B2DE699
:1050700018EE100AFBF780FA06460F466CA3D3E938
:105080000023FBF757FD58B1DFED6B7AB4EEE78AEA
:10509000F1EE10FA04D5694B694A0093694B35E685
:1050A0005FA3D3E9002330463946FBF743FD58B1EF
:1050B000DFED657AB4EEE78AF1EE10FA04D55F4BC6
:1050C000624A00935F4B21E657A3D3E900233046A1
:1050D0003946FBF72FFD00283FF41CAE574A594BC9
:1050E000009213E6FEF736F9544B594A00931146E5
:1050F000544B0CE6412B7FF652AE412303600B600C
:105100001E234BE6042B43D14FF07F4804F2547921
:1051100004F21470C4F844870BF0E2F84846C4F86F
:1051200084870BF0DDF804F29470C4F8C4870BF0A8
:10513000D7F804F2D470C4F804880BF0D1F83F4BD0
:105140004846C4F884370BF0CBF83378013B337012
:10515000404B1B78012B40F0E78096233E4A3F49A5
:105160003370096853683E480B443E49222B436024
:105170004B6005D8232343604B60002353600EE649
:10518000412B7FF60CAE412343604B601E23F5E7B5
:10519000022B69D14FF07F4804F2147004F2947925
:1051A000C4F844870BF09CF804F25470C4F8848768
:1051B0000BF096F84846C4F8C4870BF091F804F257
:1051C000D470C4F804880BF08BF81C4B4846C4F824
:1051D000C4370BF085F83378013B33701D4B1B78D7
:1051E000012B40F0A18096231B4A1C4933700968AB
:1051F00093681B480B441B49222B83608B6005D8A6
:10520000232383608B6000239360C8E5412B7FF6E6
:10521000C6AD412383608B601E23F5E7AFF30080AA
:10522000333333333333444033333333333349400D
:105230006666666666663E40000020420000FFFF2C
:10524000009BFFFF663300FF00004842005FFFFF46
:105250008A8A8AFF80190020841900201C000020FF
:10526000001B00200C000020012B42D14FF07F4892
:1052700004F21470C4F844870BF032F804F254704E
:10528000C4F884870BF02CF804F29470C4F8C48737
:105290000BF026F804F2D470C4F8048803900BF0E5
:1052A0001FF8BB4B0398C4F804380BF019F8337897
:1052B000013B3370B74B1B78012B35D19623B64A8F
:1052C000B64933700968D368B5480B44B549222BF9
:1052D000C360CB6005D82323C360CB600023D360B9
:1052E0005DE5412B7FF65BAD4123C360CB601E23A0
:1052F000F5E7CBB94FF07F4804F21470C4F8448747
:105300000AF0EEFF04F25470C4F884870AF0E8FF54
:1053100004F29470C4F8C4870AF0E2FF04F2D47077
:10532000C4F804880AF0DCFF3378002B7FF43DAD2D
:105330003B703AE500229C4B40464946FAF7BEFFD7
:1053400002460B4630463946FBF7F4FB70B90022A3
:10535000954B40464946FAF7AFFF02460B463046AA
:105360003946FBF7D3FB00283FF45CAD8F4B00229E
:105370001A6057E5012A01D1C3F800A0039B95EDFF
:10538000018A13F0400200F0998018EE100AFBF732
:10539000F3F8844B06460F46D3F804A05046FBF7BB
:1053A000D9F80022824B80468946FAF785FF0246EB
:1053B0000B4630463946FBF7BDFB00B34046494635
:1053C00071A3D3E90023FAF779FF02460B46304672
:1053D0003946FBF7A5FB90B10123744A5360734B28
:1053E0005A68744B52BBBDEEC88A83ED018A29E02E
:1053F0006E4B0022BDEEC88A1A606E4B1AE5002281
:10540000694B40464946FAF759FF02460B4630467B
:105410003946FBF78FFB68B90022634B404649468B
:10542000FAF74AFF02460B4630463946FBF76EFB59
:105430000028D4D05D4B00225A60D0E7012A01D168
:10544000C3F804A0039B95ED028A13F02002DFF855
:1054500054A100F0B18018EE100AFBF78DF8DAF8CD
:10546000083006460F4618460493FBF773F80022EF
:105470004F4B80468946FAF71FFF02460B463046DF
:105480003946FBF757FBF8B1404649463EA3D3E9FE
:105490000023FAF713FF02460B4630463946FBF766
:1054A0003FFB88B10123414A9360404B9A68414BCE
:1054B0004ABBBDEEC88A83ED028A28E03B4BBDEEB5
:1054C000C88A5A603B4B90E70022374B404649461A
:1054D000FAF7F4FE02460B4630463946FBF72AFB44
:1054E00068B90022304B40464946FAF7E5FE0246CD
:1054F0000B4630463946FBF709FB0028D5D02B4B2D
:1055000000229A60D1E7012A01D1049A9A60039B94
:1055100095ED038A13F0100300F04F8118EE100A86
:10552000FBF72AF81F4B06460F46DD682846FBF7B7
:1055300011F800221E4B80468946FAF7BDFE02464E
:105540000B4630463946FBF7F5FA00283AD040467C
:1055500049460DA3D3E90023FAF7B0FE02460B46F5
:1055600030463946FBF7DCFA60B301230F4AD360BB
:105570000E4BDA680F4B002A43D1BDEEC88A83ED8B
:10558000038A41E0AFF300809A9999999999D93F9C
:105590000000FFFF80190020841900201C0000205B
:1055A000001B00200C0000200000F83F3C1B0020E6
:1055B0000000E03F001B0020894BBDEEC88A9A60C6
:1055C000884B78E70022884B40464946FAF776FE3A
:1055D00002460B4630463946FBF7ACFA68B9002262
:1055E000814B40464946FAF767FE02460B46304675
:1055F0003946FBF78BFA0028BAD0794B0022DA60E3
:10560000B6E7012A00D1DD60764E04F62805774A18
:105610000A21336828460CF0B3FEC4F8AC5304F6F4
:10562000640504F55C700AF05BFE33686F4A0A217A
:1056300028460CF0A5FEC4F86C5404F6140504F5D5
:1056400086600AF04DFE7368684A0A2128460CF00D
:1056500097FEC4F86C5304F63C0504F54C700AF050
:105660003FFEB368614A0A2128460CF089FEC4F85F
:10567000EC5304F5056504F56C700AF031FEF3682F
:105680005A4A0A2128460CF07BFEC4F82C5404F632
:10569000780504F57C700AF023FEDAF80030534AEE
:1056A0000A2128460CF06CFEC4F8505704F68C050D
:1056B00004F214700AF014FEDAF804304B4A0A219E
:1056C00028460CF05DFEC4F8905704F50A6504F214
:1056D00054700AF005FEDAF80830444A0A212846D8
:1056E0000CF04EFEC4F8D05704F6B40504F29470E2
:1056F0000AF0F6FDDAF80C303C4A0A2128460CF094
:105700003FFE04F2D470C4F810580AF0E9FD0023FB
:10571000059A1370364B374D1A78012A04BF0021C1
:105720002A705A7808BF1970012A04BF00212A7014
:105730009A7808BF5970012A04BF00212A70DA78CC
:1057400008BF9970012A3ED100212A70D9702A4CD5
:105750000A232A4A206861685843294E5943106039
:10576000284A1160A268E4685A436343264C3260B9
:10577000FC262360254C2670B026E0706670060A71
:105780006171080AE271110A63721A0A9BF800300B
:1057900020714720A372A523A171E3722272A67023
:1057A00000F0CAFC0C222146194803F03BF84720C0
:1057B00000F0B4FC00232B7008E0094ABDEEC88A53
:1057C000D360084BDBE62B78012BC0D09BF8002080
:1057D000104B1A7007B0BDEC028BBDE8F08F00BF14
:1057E0003C1B0020001B00200000F83F04130208AF
:1057F00095190020101B00200C0000204C1B0020DD
:10580000541B0020501B0020581B0020111B00209F
:1058100078AC00201D1B00200022026070470000B1
:1058200014221249124808B503F088FC114A136883
:105830000133052BC9BF0023136013600122C4BFCD
:105840000D4B1A600D4A136801330B2BC8BF0023A0
:1058500013600B4A136801333B2BC9BF002313604D
:1058600013600122C4BF074B1A6008BD701B0020E3
:1058700078AC0020601B00206C1B0020641B002003
:10588000681B0020841B00200268034B9A4202BF61
:10589000024B01221A707047001401405C1B00206B
:1058A000704704387047704710B50446102118F04F
:1058B00017FD204610BDA0F10400F5E70022C160ED
:1058C0008260044A10B502F108042032046042608C
:1058D00010BD00BF4C13020870477047FEF75CBC58
:1058E00010B50446D82118F0FBFC204610BD00007E
:1058F00010B50446FEF78EFB014B2046236010BD19
:105900007C130208704704387047704710B504468E
:10591000102118F0E5FC204610BDA0F10400F5E7C9
:105920000022C1608260044A10B502F108042032EE
:105930000460426010BD00BFA813020870477047A2
:1059400008B5FEF7D8FE142202490348BDE8084016
:1059500003F0F4BB701B002078AC0020F8B5504D6C
:1059600004462B78012B06D114224E494E4803F0F1
:10597000E5FB00232B704B4B4C4F1A78FB2A27D1A9
:105980005A78802A24D1DA7CA52A21D1484DFC21DD
:1059900000234720297090213B70AB70EB702B7176
:1059A0006B71AB71EB712B726B72AB726970EA72D7
:1059B00000F0C2FB0C2229463B4802F033FF47208F
:1059C00000F0ACFB01233B7009F0CCFCFDF740F884
:1059D000384A394D136823B12B6800210133116017
:1059E0002B602B68032B06DDFF2304F1D40084F821
:1059F0000A310AF075FC2B68072B06DDFF2304F53E
:105A0000887084F846310AF06BFC2B680B2B06DD9E
:105A1000FF2304F5A67084F882310AF061FC2B683C
:105A20000F2B16DD002604F1D40084F80A6184F8F7
:105A3000466184F882610AF053FC04F588700AF02C
:105A40004FFC04F5A6700AF04BFC1C4B01222E60A3
:105A50001A703B78012B21D1184E3378012B1DD1C0
:105A6000134CFC230025472023707023A57063701E
:105A7000A523E570E37225716571A571E571257245
:105A80006572A57200F058FB64230C22214606487B
:105A900003F063FA472000F041FB3570F8BD00BF0A
:105AA0005C1B0020701B002078AC00202000002030
:105AB000901B00206C1B00208C1B0020881B0020EA
:105AC00010B504464FF4C47118F00AFC204610BD0E
:105AD00010B50446FEF718FE014B2046236010BDAA
